{
  "contractName": "ERC20Handler",
  "abi": [
    {
      "inputs": [
        {
          "internalType": "address",
          "name": "bridgeAddress",
          "type": "address"
        },
        {
          "internalType": "bytes32[]",
          "name": "initialResourceIDs",
          "type": "bytes32[]"
        },
        {
          "internalType": "address[]",
          "name": "initialContractAddresses",
          "type": "address[]"
        },
        {
          "internalType": "address[]",
          "name": "burnableContractAddresses",
          "type": "address[]"
        }
      ],
      "stateMutability": "nonpayable",
      "type": "constructor"
    },
    {
      "inputs": [],
      "name": "_bridgeAddress",
      "outputs": [
        {
          "internalType": "address",
          "name": "",
          "type": "address"
        }
      ],
      "stateMutability": "view",
      "type": "function"
    },
    {
      "inputs": [
        {
          "internalType": "address",
          "name": "",
          "type": "address"
        }
      ],
      "name": "_burnList",
      "outputs": [
        {
          "internalType": "bool",
          "name": "",
          "type": "bool"
        }
      ],
      "stateMutability": "view",
      "type": "function"
    },
    {
      "inputs": [
        {
          "internalType": "address",
          "name": "",
          "type": "address"
        }
      ],
      "name": "_contractWhitelist",
      "outputs": [
        {
          "internalType": "bool",
          "name": "",
          "type": "bool"
        }
      ],
      "stateMutability": "view",
      "type": "function"
    },
    {
      "inputs": [
        {
          "internalType": "uint8",
          "name": "",
          "type": "uint8"
        },
        {
          "internalType": "uint64",
          "name": "",
          "type": "uint64"
        }
      ],
      "name": "_depositRecords",
      "outputs": [
        {
          "internalType": "address",
          "name": "_tokenAddress",
          "type": "address"
        },
        {
          "internalType": "uint8",
          "name": "_destinationChainID",
          "type": "uint8"
        },
        {
          "internalType": "bytes32",
          "name": "_resourceID",
          "type": "bytes32"
        },
        {
          "internalType": "bytes",
          "name": "_destinationRecipientAddress",
          "type": "bytes"
        },
        {
          "internalType": "address",
          "name": "_depositer",
          "type": "address"
        },
        {
          "internalType": "uint256",
          "name": "_amount",
          "type": "uint256"
        }
      ],
      "stateMutability": "view",
      "type": "function"
    },
    {
      "inputs": [
        {
          "internalType": "bytes32",
          "name": "",
          "type": "bytes32"
        }
      ],
      "name": "_resourceIDToTokenContractAddress",
      "outputs": [
        {
          "internalType": "address",
          "name": "",
          "type": "address"
        }
      ],
      "stateMutability": "view",
      "type": "function"
    },
    {
      "inputs": [
        {
          "internalType": "address",
          "name": "",
          "type": "address"
        }
      ],
      "name": "_tokenContractAddressToResourceID",
      "outputs": [
        {
          "internalType": "bytes32",
          "name": "",
          "type": "bytes32"
        }
      ],
      "stateMutability": "view",
      "type": "function"
    },
    {
      "inputs": [
        {
          "internalType": "address",
          "name": "tokenAddress",
          "type": "address"
        },
        {
          "internalType": "address",
          "name": "owner",
          "type": "address"
        },
        {
          "internalType": "uint256",
          "name": "amount",
          "type": "uint256"
        }
      ],
      "name": "fundERC20",
      "outputs": [],
      "stateMutability": "nonpayable",
      "type": "function"
    },
    {
      "inputs": [
        {
          "internalType": "address",
          "name": "contractAddress",
          "type": "address"
        }
      ],
      "name": "setBurnable",
      "outputs": [],
      "stateMutability": "nonpayable",
      "type": "function"
    },
    {
      "inputs": [
        {
          "internalType": "bytes32",
          "name": "resourceID",
          "type": "bytes32"
        },
        {
          "internalType": "address",
          "name": "contractAddress",
          "type": "address"
        }
      ],
      "name": "setResource",
      "outputs": [],
      "stateMutability": "nonpayable",
      "type": "function"
    },
    {
      "inputs": [
        {
          "internalType": "uint64",
          "name": "depositNonce",
          "type": "uint64"
        },
        {
          "internalType": "uint8",
          "name": "destId",
          "type": "uint8"
        }
      ],
      "name": "getDepositRecord",
      "outputs": [
        {
          "components": [
            {
              "internalType": "address",
              "name": "_tokenAddress",
              "type": "address"
            },
            {
              "internalType": "uint8",
              "name": "_destinationChainID",
              "type": "uint8"
            },
            {
              "internalType": "bytes32",
              "name": "_resourceID",
              "type": "bytes32"
            },
            {
              "internalType": "bytes",
              "name": "_destinationRecipientAddress",
              "type": "bytes"
            },
            {
              "internalType": "address",
              "name": "_depositer",
              "type": "address"
            },
            {
              "internalType": "uint256",
              "name": "_amount",
              "type": "uint256"
            }
          ],
          "internalType": "struct ERC20Handler.DepositRecord",
          "name": "",
          "type": "tuple"
        }
      ],
      "stateMutability": "view",
      "type": "function"
    },
    {
      "inputs": [
        {
          "internalType": "bytes32",
          "name": "resourceID",
          "type": "bytes32"
        },
        {
          "internalType": "uint8",
          "name": "destinationChainID",
          "type": "uint8"
        },
        {
          "internalType": "uint64",
          "name": "depositNonce",
          "type": "uint64"
        },
        {
          "internalType": "address",
          "name": "depositer",
          "type": "address"
        },
        {
          "internalType": "bytes",
          "name": "data",
          "type": "bytes"
        }
      ],
      "name": "deposit",
      "outputs": [],
      "stateMutability": "nonpayable",
      "type": "function"
    },
    {
      "inputs": [
        {
          "internalType": "bytes32",
          "name": "resourceID",
          "type": "bytes32"
        },
        {
          "internalType": "bytes",
          "name": "data",
          "type": "bytes"
        }
      ],
      "name": "executeProposal",
      "outputs": [],
      "stateMutability": "nonpayable",
      "type": "function"
    },
    {
      "inputs": [
        {
          "internalType": "address",
          "name": "tokenAddress",
          "type": "address"
        },
        {
          "internalType": "address",
          "name": "recipient",
          "type": "address"
        },
        {
          "internalType": "uint256",
          "name": "amount",
          "type": "uint256"
        }
      ],
      "name": "withdraw",
      "outputs": [],
      "stateMutability": "nonpayable",
      "type": "function"
    }
  ],
  "bytecode": "0x60806040523480156200001157600080fd5b50604051620015843803806200158483398101604081905262000034916200025d565b8151835114620000615760405162461bcd60e51b81526004016200005890620003a2565b60405180910390fd5b600080546001600160a01b0319166001600160a01b0386161781555b8351811015620000ca57620000c18482815181106200009857fe5b6020026020010151848381518110620000ad57fe5b60200260200101516200011160201b60201c565b6001016200007d565b5060005b81518110156200010657620000fd828281518110620000e957fe5b60200260200101516200016060201b60201c565b600101620000ce565b505050505062000446565b600082815260016020818152604080842080546001600160a01b039096166001600160a01b0319909616861790559383526002815283832094909455600390935220805460ff19169091179055565b6001600160a01b03811660009081526003602052604090205460ff166200019b5760405162461bcd60e51b815260040162000058906200035e565b6001600160a01b03166000908152600460205260409020805460ff19166001179055565b80516001600160a01b0381168114620001d757600080fd5b92915050565b600082601f830112620001ee578081fd5b815162000205620001ff8262000426565b620003ff565b8181529150602080830190848101818402860182018710156200022757600080fd5b60005b8481101562000252576200023f8883620001bf565b845292820192908201906001016200022a565b505050505092915050565b6000806000806080858703121562000273578384fd5b6200027f8686620001bf565b602086810151919550906001600160401b03808211156200029e578586fd5b818801915088601f830112620002b2578586fd5b8151620002c3620001ff8262000426565b81815284810190848601868402860187018d1015620002e057898afd5b8995505b8386101562000304578051835260019590950194918601918601620002e4565b5060408b015190985094505050808311156200031e578485fd5b6200032c89848a01620001dd565b9450606088015192508083111562000342578384fd5b50506200035287828801620001dd565b91505092959194509250565b60208082526024908201527f70726f766964656420636f6e7472616374206973206e6f742077686974656c696040820152631cdd195960e21b606082015260800190565b6020808252603c908201527f696e697469616c5265736f7572636549447320616e6420696e697469616c436f60408201527f6e7472616374416464726573736573206c656e206d69736d6174636800000000606082015260800190565b6040518181016001600160401b03811182821017156200041e57600080fd5b604052919050565b60006001600160401b038211156200043c578081fd5b5060209081020190565b61112e80620004566000396000f3fe608060405234801561001057600080fd5b50600436106100cf5760003560e01c80637f79bea81161008c578063ba484c0911610066578063ba484c09146101ab578063c8ba6c87146101cb578063d9caed12146101eb578063e248cff2146101fe576100cf565b80637f79bea81461017257806395601f0914610185578063b8fa373614610198576100cf565b806307b7ed99146100d45780630a6d55d8146100e9578063318c136e1461011257806338995da91461011a5780634402027f1461012d5780636a70d08114610152575b600080fd5b6100e76100e2366004610bea565b610211565b005b6100fc6100f7366004610c6c565b610225565b6040516101099190610e58565b60405180910390f35b6100fc610240565b6100e7610128366004610cfd565b61024f565b61014061013b366004610dd2565b610473565b60405161010996959493929190610ea9565b610165610160366004610bea565b610553565b6040516101099190610eee565b610165610180366004610bea565b610568565b6100e7610193366004610c0c565b61057d565b6100e76101a6366004610c84565b610590565b6101be6101b9366004610d9e565b6105a6565b6040516101099190611026565b6101de6101d9366004610bea565b6106c0565b6040516101099190610ef9565b6100e76101f9366004610c0c565b6106d2565b6100e761020c366004610cb3565b6106ea565b6102196107e9565b61022281610815565b50565b6001602052600090815260409020546001600160a01b031681565b6000546001600160a01b031681565b6102576107e9565b606060008061026884860186610d7d565b909250905061027d604080830190868861108f565b8080601f01602080910402602001604051908101604052809392919081815260200183838082843760009201829052508d8152600160209081526040808320546001600160a01b03168084526003909252909120549497509360ff1692506103039150505760405162461bcd60e51b81526004016102fa90610fde565b60405180910390fd5b6001600160a01b03811660009081526004602052604090205460ff16156103345761032f818885610871565b610340565b610340818830866108cf565b6040518060c00160405280826001600160a01b031681526020018a60ff1681526020018b8152602001858152602001886001600160a01b0316815260200184815250600560008b60ff1660ff16815260200190815260200160002060008a67ffffffffffffffff1667ffffffffffffffff16815260200190815260200160002060008201518160000160006101000a8154816001600160a01b0302191690836001600160a01b0316021790555060208201518160000160146101000a81548160ff021916908360ff160217905550604082015181600101556060820151816002019080519060200190610434929190610a9c565b5060808201516003820180546001600160a01b0319166001600160a01b0390921691909117905560a09091015160049091015550505050505050505050565b600560209081526000928352604080842082529183529181902080546001808301546002808501805487516101009582161595909502600019011691909104601f81018890048802840188019096528583526001600160a01b03841696600160a01b90940460ff16959194939091908301828280156105335780601f1061050857610100808354040283529160200191610533565b820191906000526020600020905b81548152906001019060200180831161051657829003601f168201915b50505050600383015460049093015491926001600160a01b031691905086565b60046020526000908152604090205460ff1681565b60036020526000908152604090205460ff1681565b8261058a818430856108e3565b50505050565b6105986107e9565b6105a2828261093b565b5050565b6105ae610b1a565b60ff828116600090815260056020908152604080832067ffffffffffffffff88168452825291829020825160c08101845281546001600160a01b0381168252600160a01b900490941684830152600180820154858501526002808301805486516101009482161594909402600019011691909104601f8101859004850283018501909552848252919360608601939192918301828280156106905780601f1061066557610100808354040283529160200191610690565b820191906000526020600020905b81548152906001019060200180831161067357829003601f168201915b505050918352505060038201546001600160a01b0316602082015260049091015460409091015290505b92915050565b60026020526000908152604090205481565b6106da6107e9565b6106e583838361098a565b505050565b6106f26107e9565b600080606061070384860186610d7d565b9093509150610718604080840190868861108f565b8080601f01602080910402602001604051908101604052809392919081815260200183838082843760009201829052508a815260016020908152604080832054828801516001600160a01b039091168085526003909352922054959650909490935060ff16915061079d90505760405162461bcd60e51b81526004016102fa90610fde565b6001600160a01b03811660009081526004602052604090205460ff16156107d1576107cc818360601c87610996565b6107df565b6107df818360601c8761098a565b5050505050505050565b6000546001600160a01b031633146108135760405162461bcd60e51b81526004016102fa90610f37565b565b6001600160a01b03811660009081526003602052604090205460ff1661084d5760405162461bcd60e51b81526004016102fa90610f6e565b6001600160a01b03166000908152600460205260409020805460ff19166001179055565b60405163079cc67960e41b815283906001600160a01b038216906379cc6790906108a19086908690600401610e90565b600060405180830381600087803b1580156108bb57600080fd5b505af11580156107df573d6000803e3d6000fd5b836108dc818585856108e3565b5050505050565b61058a846323b872dd60e01b85858560405160240161090493929190610e6c565b60408051601f198184030181529190526020810180516001600160e01b03166001600160e01b0319909316929092179091526109c6565b600082815260016020818152604080842080546001600160a01b039096166001600160a01b0319909616861790559383526002815283832094909455600390935220805460ff19169091179055565b8261058a818484610a7d565b6040516340c10f1960e01b815283906001600160a01b038216906340c10f19906108a19086908690600401610e90565b60006060836001600160a01b0316836040516109e29190610e3c565b6000604051808303816000865af19150503d8060008114610a1f576040519150601f19603f3d011682016040523d82523d6000602084013e610a24565b606091505b509150915081610a465760405162461bcd60e51b81526004016102fa90610fb2565b80511561058a5780806020019051810190610a619190610c4c565b61058a5760405162461bcd60e51b81526004016102fa90610f02565b6106e58363a9059cbb60e01b8484604051602401610904929190610e90565b828054600181600116156101000203166002900490600052602060002090601f016020900481019282601f10610add57805160ff1916838001178555610b0a565b82800160010185558215610b0a579182015b82811115610b0a578251825591602001919060010190610aef565b50610b16929150610b4e565b5090565b6040805160c0810182526000808252602082018190529181018290526060808201526080810182905260a081019190915290565b5b80821115610b165760008155600101610b4f565b80356001600160a01b03811681146106ba57600080fd5b60008083601f840112610b8b578182fd5b50813567ffffffffffffffff811115610ba2578182fd5b602083019150836020828501011115610bba57600080fd5b9250929050565b803567ffffffffffffffff811681146106ba57600080fd5b803560ff811681146106ba57600080fd5b600060208284031215610bfb578081fd5b610c058383610b63565b9392505050565b600080600060608486031215610c20578182fd5b8335610c2b816110e3565b92506020840135610c3b816110e3565b929592945050506040919091013590565b600060208284031215610c5d578081fd5b81518015158114610c05578182fd5b600060208284031215610c7d578081fd5b5035919050565b60008060408385031215610c96578182fd5b823591506020830135610ca8816110e3565b809150509250929050565b600080600060408486031215610cc7578283fd5b83359250602084013567ffffffffffffffff811115610ce4578283fd5b610cf086828701610b7a565b9497909650939450505050565b60008060008060008060a08789031215610d15578182fd5b86359550610d268860208901610bd9565b9450610d358860408901610bc1565b9350610d448860608901610b63565b9250608087013567ffffffffffffffff811115610d5f578283fd5b610d6b89828a01610b7a565b979a9699509497509295939492505050565b60008060408385031215610d8f578182fd5b50508035926020909101359150565b60008060408385031215610db0578182fd5b610dba8484610bc1565b9150610dc98460208501610bd9565b90509250929050565b60008060408385031215610de4578182fd5b823560ff81168114610df4578283fd5b9150602083013567ffffffffffffffff81168114610ca8578182fd5b60008151808452610e288160208601602086016110b7565b601f01601f19169290920160200192915050565b60008251610e4e8184602087016110b7565b9190910192915050565b6001600160a01b0391909116815260200190565b6001600160a01b039384168152919092166020820152604081019190915260600190565b6001600160a01b03929092168252602082015260400190565b600060018060a01b03808916835260ff8816602084015286604084015260c06060840152610eda60c0840187610e10565b941660808301525060a00152949350505050565b901515815260200190565b90815260200190565b6020808252818101527f45524332303a206f7065726174696f6e20646964206e6f742073756363656564604082015260600190565b6020808252601e908201527f73656e646572206d7573742062652062726964676520636f6e74726163740000604082015260600190565b60208082526024908201527f70726f766964656420636f6e7472616374206973206e6f742077686974656c696040820152631cdd195960e21b606082015260800190565b602080825260129082015271115490cc8c0e8818d85b1b0819985a5b195960721b604082015260600190565b60208082526028908201527f70726f766964656420746f6b656e41646472657373206973206e6f74207768696040820152671d195b1a5cdd195960c21b606082015260800190565b60006020825260018060a01b0380845116602084015260ff602085015116604084015260408401516060840152606084015160c0608085015261106c60e0850182610e10565b90508160808601511660a085015260a085015160c0850152809250505092915050565b6000808585111561109e578182fd5b838611156110aa578182fd5b5050820193919092039150565b60005b838110156110d25781810151838201526020016110ba565b8381111561058a5750506000910152565b6001600160a01b038116811461022257600080fdfea2646970667358221220c442c25a9c9de2c5c74807a5b1ef8e9acb79a4e8c873e144aa8dedccd45bb82f64736f6c634300060c0033",
  "immutableReferences": {},
  "source": "pragma solidity 0.6.12;\npragma experimental ABIEncoderV2;\n\nimport \"../interfaces/IDepositExecute.sol\";\nimport \"./HandlerHelpers.sol\";\nimport \"../ERC20Safe.sol\";\n\n/**\n    @title Handles ERC20 deposits and deposit executions.\n    @author ChainSafe Systems.\n    @notice This contract is intended to be used with the Bridge contract.\n */\ncontract ERC20Handler is IDepositExecute, HandlerHelpers, ERC20Safe {\n    struct DepositRecord {\n        address _tokenAddress;\n        uint8   _destinationChainID;\n        bytes32 _resourceID;\n        bytes   _destinationRecipientAddress;\n        address _depositer;\n        uint    _amount;\n    }\n\n    // destId => depositNonce => Deposit Record\n    mapping (uint8 => mapping(uint64 => DepositRecord)) public _depositRecords;\n\n    /**\n        @param bridgeAddress Contract address of previously deployed Bridge.\n        @param initialResourceIDs Resource IDs are used to identify a specific contract address.\n        These are the Resource IDs this contract will initially support.\n        @param initialContractAddresses These are the addresses the {initialResourceIDs} will point to, and are the contracts that will be\n        called to perform various deposit calls.\n        @param burnableContractAddresses These addresses will be set as burnable and when {deposit} is called, the deposited token will be burned.\n        When {executeProposal} is called, new tokens will be minted.\n\n        @dev {initialResourceIDs} and {initialContractAddresses} must have the same length (one resourceID for every address).\n        Also, these arrays must be ordered in the way that {initialResourceIDs}[0] is the intended resourceID for {initialContractAddresses}[0].\n     */\n    constructor(\n        address          bridgeAddress,\n        bytes32[] memory initialResourceIDs,\n        address[] memory initialContractAddresses,\n        address[] memory burnableContractAddresses\n    ) public {\n        require(initialResourceIDs.length == initialContractAddresses.length,\n            \"initialResourceIDs and initialContractAddresses len mismatch\");\n\n        _bridgeAddress = bridgeAddress;\n\n        for (uint256 i = 0; i < initialResourceIDs.length; i++) {\n            _setResource(initialResourceIDs[i], initialContractAddresses[i]);\n        }\n\n        for (uint256 i = 0; i < burnableContractAddresses.length; i++) {\n            _setBurnable(burnableContractAddresses[i]);\n        }\n    }\n\n    /**\n        @param depositNonce This ID will have been generated by the Bridge contract.\n        @param destId ID of chain deposit will be bridged to.\n        @return DepositRecord which consists of:\n        - _tokenAddress Address used when {deposit} was executed.\n        - _destinationChainID ChainID deposited tokens are intended to end up on.\n        - _resourceID ResourceID used when {deposit} was executed.\n        - _destinationRecipientAddress Address tokens are intended to be deposited to on desitnation chain.\n        - _depositer Address that initially called {deposit} in the Bridge contract.\n        - _amount Amount of tokens that were deposited.\n    */\n    function getDepositRecord(uint64 depositNonce, uint8 destId) external view returns (DepositRecord memory) {\n        return _depositRecords[destId][depositNonce];\n    }\n\n    /**\n        @notice A deposit is initiatied by making a deposit in the Bridge contract.\n        @param destinationChainID Chain ID of chain tokens are expected to be bridged to.\n        @param depositNonce This value is generated as an ID by the Bridge contract.\n        @param depositer Address of account making the deposit in the Bridge contract.\n        @param data Consists of: {resourceID}, {amount}, {lenRecipientAddress}, and {recipientAddress}\n        all padded to 32 bytes.\n        @notice Data passed into the function should be constructed as follows:\n        amount                      uint256     bytes   0 - 32\n        recipientAddress length     uint256     bytes  32 - 64\n        recipientAddress            bytes       bytes  64 - END\n        @dev Depending if the corresponding {tokenAddress} for the parsed {resourceID} is\n        marked true in {_burnList}, deposited tokens will be burned, if not, they will be locked.\n     */\n    function deposit(\n        bytes32 resourceID,\n        uint8   destinationChainID,\n        uint64  depositNonce,\n        address depositer,\n        bytes   calldata data\n    ) external override onlyBridge {\n        bytes   memory recipientAddress;\n        uint256        amount;\n        uint256        lenRecipientAddress;\n\n        (amount, lenRecipientAddress) = abi.decode(data, (uint, uint));\n        recipientAddress = bytes(data[64:64 + lenRecipientAddress]);\n\n        address tokenAddress = _resourceIDToTokenContractAddress[resourceID];\n        require(_contractWhitelist[tokenAddress], \"provided tokenAddress is not whitelisted\");\n\n        if (_burnList[tokenAddress]) {\n            burnERC20(tokenAddress, depositer, amount);\n        } else {\n            lockERC20(tokenAddress, depositer, address(this), amount);\n        }\n\n        _depositRecords[destinationChainID][depositNonce] = DepositRecord(\n            tokenAddress,\n            destinationChainID,\n            resourceID,\n            recipientAddress,\n            depositer,\n            amount\n        );\n    }\n\n    /**\n        @notice Proposal execution should be initiated when a proposal is finalized in the Bridge contract.\n        by a relayer on the deposit's destination chain.\n        @param data Consists of {resourceID}, {amount}, {lenDestinationRecipientAddress},\n        and {destinationRecipientAddress} all padded to 32 bytes.\n        @notice Data passed into the function should be constructed as follows:\n        amount                                 uint256     bytes  0 - 32\n        destinationRecipientAddress length     uint256     bytes  32 - 64\n        destinationRecipientAddress            bytes       bytes  64 - END\n     */\n    function executeProposal(bytes32 resourceID, bytes calldata data) external override onlyBridge {\n        uint256       amount;\n        uint256       lenDestinationRecipientAddress;\n        bytes  memory destinationRecipientAddress;\n\n        (amount, lenDestinationRecipientAddress) = abi.decode(data, (uint, uint));\n        destinationRecipientAddress = bytes(data[64:64 + lenDestinationRecipientAddress]);\n\n        bytes20 recipientAddress;\n        address tokenAddress = _resourceIDToTokenContractAddress[resourceID];\n\n        assembly {\n            recipientAddress := mload(add(destinationRecipientAddress, 0x20))\n        }\n\n        require(_contractWhitelist[tokenAddress], \"provided tokenAddress is not whitelisted\");\n\n        if (_burnList[tokenAddress]) {\n            mintERC20(tokenAddress, address(recipientAddress), amount);\n        } else {\n            releaseERC20(tokenAddress, address(recipientAddress), amount);\n        }\n    }\n\n    /**\n        @notice Used to manually release ERC20 tokens from ERC20Safe.\n        @param tokenAddress Address of token contract to release.\n        @param recipient Address to release tokens to.\n        @param amount The amount of ERC20 tokens to release.\n     */\n    function withdraw(address tokenAddress, address recipient, uint amount) external override onlyBridge {\n        releaseERC20(tokenAddress, recipient, amount);\n    }\n}\n",
  "sourcePath": "/home/aome510/Projects/curvegrid/chainbridge-solidity/contracts/handlers/ERC20Handler.sol",
  "compiler": {
    "name": "solc",
    "version": "0.6.12+commit.27d51765.Emscripten.clang"
  },
  "schemaVersion": "3.3.3",
  "updatedAt": "2021-01-04T06:21:30.492Z",
  "devdoc": {
    "author": "ChainSafe Systems.",
    "kind": "dev",
    "methods": {
      "constructor": {
        "details": "{initialResourceIDs} and {initialContractAddresses} must have the same length (one resourceID for every address). Also, these arrays must be ordered in the way that {initialResourceIDs}[0] is the intended resourceID for {initialContractAddresses}[0].",
        "params": {
          "bridgeAddress": "Contract address of previously deployed Bridge.",
          "burnableContractAddresses": "These addresses will be set as burnable and when {deposit} is called, the deposited token will be burned. When {executeProposal} is called, new tokens will be minted.",
          "initialContractAddresses": "These are the addresses the {initialResourceIDs} will point to, and are the contracts that will be called to perform various deposit calls.",
          "initialResourceIDs": "Resource IDs are used to identify a specific contract address. These are the Resource IDs this contract will initially support."
        }
      },
      "deposit(bytes32,uint8,uint64,address,bytes)": {
        "details": "Depending if the corresponding {tokenAddress} for the parsed {resourceID} is marked true in {_burnList}, deposited tokens will be burned, if not, they will be locked.",
        "params": {
          "data": "Consists of: {resourceID}, {amount}, {lenRecipientAddress}, and {recipientAddress} all padded to 32 bytes.",
          "depositNonce": "This value is generated as an ID by the Bridge contract.",
          "depositer": "Address of account making the deposit in the Bridge contract.",
          "destinationChainID": "Chain ID of chain tokens are expected to be bridged to."
        }
      },
      "executeProposal(bytes32,bytes)": {
        "params": {
          "data": "Consists of {resourceID}, {amount}, {lenDestinationRecipientAddress}, and {destinationRecipientAddress} all padded to 32 bytes."
        }
      },
      "fundERC20(address,address,uint256)": {
        "params": {
          "amount": "Amount of tokens to transfer.",
          "owner": "Address of current token owner.",
          "tokenAddress": "Address of ERC20 to transfer."
        }
      },
      "getDepositRecord(uint64,uint8)": {
        "params": {
          "depositNonce": "This ID will have been generated by the Bridge contract.",
          "destId": "ID of chain deposit will be bridged to."
        },
        "returns": {
          "_0": "DepositRecord which consists of: - _tokenAddress Address used when {deposit} was executed. - _destinationChainID ChainID deposited tokens are intended to end up on. - _resourceID ResourceID used when {deposit} was executed. - _destinationRecipientAddress Address tokens are intended to be deposited to on desitnation chain. - _depositer Address that initially called {deposit} in the Bridge contract. - _amount Amount of tokens that were deposited."
        }
      },
      "setBurnable(address)": {
        "params": {
          "contractAddress": "Address of contract to be used when making or executing deposits."
        }
      },
      "setResource(bytes32,address)": {
        "params": {
          "contractAddress": "Address of contract to be called when a deposit is made and a deposited is executed.",
          "resourceID": "ResourceID to be used when making deposits."
        }
      },
      "withdraw(address,address,uint256)": {
        "params": {
          "amount": "The amount of ERC20 tokens to release.",
          "recipient": "Address to release tokens to.",
          "tokenAddress": "Address of token contract to release."
        }
      }
    },
    "title": "Handles ERC20 deposits and deposit executions.",
    "version": 1
  },
  "userdoc": {
    "kind": "user",
    "methods": {
      "deposit(bytes32,uint8,uint64,address,bytes)": {
        "notice": "A deposit is initiatied by making a deposit in the Bridge contract.Data passed into the function should be constructed as follows: amount                      uint256     bytes   0 - 32 recipientAddress length     uint256     bytes  32 - 64 recipientAddress            bytes       bytes  64 - END"
      },
      "executeProposal(bytes32,bytes)": {
        "notice": "Proposal execution should be initiated when a proposal is finalized in the Bridge contract. by a relayer on the deposit's destination chain.Data passed into the function should be constructed as follows: amount                                 uint256     bytes  0 - 32 destinationRecipientAddress length     uint256     bytes  32 - 64 destinationRecipientAddress            bytes       bytes  64 - END"
      },
      "fundERC20(address,address,uint256)": {
        "notice": "Used to transfer tokens into the safe to fund proposals."
      },
      "setBurnable(address)": {
        "notice": "First verifies {contractAddress} is whitelisted, then sets {_burnList}[{contractAddress}] to true."
      },
      "setResource(bytes32,address)": {
        "notice": "First verifies {_resourceIDToContractAddress}[{resourceID}] and {_contractAddressToResourceID}[{contractAddress}] are not already set, then sets {_resourceIDToContractAddress} with {contractAddress}, {_contractAddressToResourceID} with {resourceID}, and {_contractWhitelist} to true for {contractAddress}."
      },
      "withdraw(address,address,uint256)": {
        "notice": "Used to manually release ERC20 tokens from ERC20Safe."
      }
    },
    "notice": "This contract is intended to be used with the Bridge contract.",
    "version": 1
  }
}